{
  "contractName": "Pastebin",
  "abi": [
    {
      "anonymous": false,
      "inputs": [
        {
          "indexed": false,
          "internalType": "string",
          "name": "content",
          "type": "string"
        },
        {
          "indexed": true,
          "internalType": "address",
          "name": "author",
          "type": "address"
        },
        {
          "indexed": false,
          "internalType": "uint256",
          "name": "timestamp",
          "type": "uint256"
        },
        {
          "indexed": true,
          "internalType": "uint256",
          "name": "id",
          "type": "uint256"
        }
      ],
      "name": "NewPaste",
      "type": "event"
    },
    {
      "inputs": [],
      "name": "pasteCount",
      "outputs": [
        {
          "internalType": "uint256",
          "name": "",
          "type": "uint256"
        }
      ],
      "stateMutability": "view",
      "type": "function",
      "constant": true
    },
    {
      "inputs": [
        {
          "internalType": "uint256",
          "name": "",
          "type": "uint256"
        }
      ],
      "name": "pastes",
      "outputs": [
        {
          "internalType": "string",
          "name": "content",
          "type": "string"
        },
        {
          "internalType": "address",
          "name": "author",
          "type": "address"
        },
        {
          "internalType": "uint256",
          "name": "timestamp",
          "type": "uint256"
        },
        {
          "internalType": "uint256",
          "name": "id",
          "type": "uint256"
        }
      ],
      "stateMutability": "view",
      "type": "function",
      "constant": true
    },
    {
      "inputs": [
        {
          "internalType": "string",
          "name": "_content",
          "type": "string"
        }
      ],
      "name": "createPaste",
      "outputs": [],
      "stateMutability": "nonpayable",
      "type": "function"
    },
    {
      "inputs": [
        {
          "internalType": "uint256",
          "name": "_id",
          "type": "uint256"
        }
      ],
      "name": "getPaste",
      "outputs": [
        {
          "internalType": "string",
          "name": "",
          "type": "string"
        },
        {
          "internalType": "address",
          "name": "",
          "type": "address"
        },
        {
          "internalType": "uint256",
          "name": "",
          "type": "uint256"
        }
      ],
      "stateMutability": "view",
      "type": "function",
      "constant": true
    },
    {
      "inputs": [],
      "name": "getAllPastes",
      "outputs": [
        {
          "components": [
            {
              "internalType": "string",
              "name": "content",
              "type": "string"
            },
            {
              "internalType": "address",
              "name": "author",
              "type": "address"
            },
            {
              "internalType": "uint256",
              "name": "timestamp",
              "type": "uint256"
            },
            {
              "internalType": "uint256",
              "name": "id",
              "type": "uint256"
            }
          ],
          "internalType": "struct Pastebin.Paste[]",
          "name": "",
          "type": "tuple[]"
        }
      ],
      "stateMutability": "view",
      "type": "function",
      "constant": true
    }
  ],
  "bytecode": "0x60806040526000805534801561001457600080fd5b50611039806100246000396000f3fe608060405234801561001057600080fd5b50600436106100575760003560e01c8063052dccfe1461005c5780631de9bc881461007a5780636f9a260a146100985780638333556e146100b4578063f2b6028d146100e7575b600080fd5b610064610119565b60405161007191906106d3565b60405180910390f35b61008261011f565b60405161008f91906108f3565b60405180910390f35b6100b260048036038101906100ad9190610a5e565b6102da565b005b6100ce60048036038101906100c99190610ad3565b610464565b6040516100de9493929190610b59565b60405180910390f35b61010160048036038101906100fc9190610ad3565b61053c565b60405161011093929190610ba5565b60405180910390f35b60015481565b6060600060015467ffffffffffffffff81111561013f5761013e610933565b5b60405190808252806020026020018201604052801561017857816020015b61016561067c565b81526020019060019003908161015d5790505b50905060005b60015481116102d257600260008281526020019081526020016000206040518060800160405290816000820180546101b590610c12565b80601f01602080910402602001604051908101604052809291908181526020018280546101e190610c12565b801561022e5780601f106102035761010080835404028352916020019161022e565b820191906000526020600020905b81548152906001019060200180831161021157829003601f168201915b505050505081526020016001820160009054906101000a900473ffffffffffffffffffffffffffffffffffffffff1673ffffffffffffffffffffffffffffffffffffffff1673ffffffffffffffffffffffffffffffffffffffff168152602001600282015481526020016003820154815250508282815181106102b4576102b3610c43565b5b602002602001018190525080806102ca90610ca1565b91505061017e565b508091505090565b600081511161031e576040517f08c379a000000000000000000000000000000000000000000000000000000000815260040161031590610d35565b60405180910390fd5b60405180608001604052808281526020013373ffffffffffffffffffffffffffffffffffffffff168152602001428152602001600054815250600260008054815260200190815260200160002060008201518160000190816103809190610f01565b5060208201518160010160006101000a81548173ffffffffffffffffffffffffffffffffffffffff021916908373ffffffffffffffffffffffffffffffffffffffff16021790555060408201518160020155606082015181600301559050506000543373ffffffffffffffffffffffffffffffffffffffff167faa4aaad2ca5f67b4d0fdd928b9fb17bb1235e596c41e14debae674b86066c524834260405161042a929190610fd3565b60405180910390a360008081548092919061044490610ca1565b91905055506001600081548092919061045c90610ca1565b919050555050565b600260205280600052604060002060009150905080600001805461048790610c12565b80601f01602080910402602001604051908101604052809291908181526020018280546104b390610c12565b80156105005780601f106104d557610100808354040283529160200191610500565b820191906000526020600020905b8154815290600101906020018083116104e357829003601f168201915b5050505050908060010160009054906101000a900473ffffffffffffffffffffffffffffffffffffffff16908060020154908060030154905084565b606060008060006002600086815260200190815260200160002060405180608001604052908160008201805461057190610c12565b80601f016020809104026020016040519081016040528092919081815260200182805461059d90610c12565b80156105ea5780601f106105bf576101008083540402835291602001916105ea565b820191906000526020600020905b8154815290600101906020018083116105cd57829003601f168201915b505050505081526020016001820160009054906101000a900473ffffffffffffffffffffffffffffffffffffffff1673ffffffffffffffffffffffffffffffffffffffff1673ffffffffffffffffffffffffffffffffffffffff168152602001600282015481526020016003820154815250509050806000015181602001518260400151935093509350509193909250565b604051806080016040528060608152602001600073ffffffffffffffffffffffffffffffffffffffff16815260200160008152602001600081525090565b6000819050919050565b6106cd816106ba565b82525050565b60006020820190506106e860008301846106c4565b92915050565b600081519050919050565b600082825260208201905092915050565b6000819050602082019050919050565b600081519050919050565b600082825260208201905092915050565b60005b83811015610754578082015181840152602081019050610739565b60008484015250505050565b6000601f19601f8301169050919050565b600061077c8261071a565b6107868185610725565b9350610796818560208601610736565b61079f81610760565b840191505092915050565b600073ffffffffffffffffffffffffffffffffffffffff82169050919050565b60006107d5826107aa565b9050919050565b6107e5816107ca565b82525050565b6107f4816106ba565b82525050565b600060808301600083015184820360008601526108178282610771565b915050602083015161082c60208601826107dc565b50604083015161083f60408601826107eb565b50606083015161085260608601826107eb565b508091505092915050565b600061086983836107fa565b905092915050565b6000602082019050919050565b6000610889826106ee565b61089381856106f9565b9350836020820285016108a58561070a565b8060005b858110156108e157848403895281516108c2858261085d565b94506108cd83610871565b925060208a019950506001810190506108a9565b50829750879550505050505092915050565b6000602082019050818103600083015261090d818461087e565b905092915050565b6000604051905090565b600080fd5b600080fd5b600080fd5b600080fd5b7f4e487b7100000000000000000000000000000000000000000000000000000000600052604160045260246000fd5b61096b82610760565b810181811067ffffffffffffffff8211171561098a57610989610933565b5b80604052505050565b600061099d610915565b90506109a98282610962565b919050565b600067ffffffffffffffff8211156109c9576109c8610933565b5b6109d282610760565b9050602081019050919050565b82818337600083830152505050565b6000610a016109fc846109ae565b610993565b905082815260208101848484011115610a1d57610a1c61092e565b5b610a288482856109df565b509392505050565b600082601f830112610a4557610a44610929565b5b8135610a558482602086016109ee565b91505092915050565b600060208284031215610a7457610a7361091f565b5b600082013567ffffffffffffffff811115610a9257610a91610924565b5b610a9e84828501610a30565b91505092915050565b610ab0816106ba565b8114610abb57600080fd5b50565b600081359050610acd81610aa7565b92915050565b600060208284031215610ae957610ae861091f565b5b6000610af784828501610abe565b91505092915050565b600082825260208201905092915050565b6000610b1c8261071a565b610b268185610b00565b9350610b36818560208601610736565b610b3f81610760565b840191505092915050565b610b53816107ca565b82525050565b60006080820190508181036000830152610b738187610b11565b9050610b826020830186610b4a565b610b8f60408301856106c4565b610b9c60608301846106c4565b95945050505050565b60006060820190508181036000830152610bbf8186610b11565b9050610bce6020830185610b4a565b610bdb60408301846106c4565b949350505050565b7f4e487b7100000000000000000000000000000000000000000000000000000000600052602260045260246000fd5b60006002820490506001821680610c2a57607f821691505b602082108103610c3d57610c3c610be3565b5b50919050565b7f4e487b7100000000000000000000000000000000000000000000000000000000600052603260045260246000fd5b7f4e487b7100000000000000000000000000000000000000000000000000000000600052601160045260246000fd5b6000610cac826106ba565b91507fffffffffffffffffffffffffffffffffffffffffffffffffffffffffffffffff8203610cde57610cdd610c72565b5b600182019050919050565b7f436f6e74656e74206d757374206e6f7420626520656d7074792e000000000000600082015250565b6000610d1f601a83610b00565b9150610d2a82610ce9565b602082019050919050565b60006020820190508181036000830152610d4e81610d12565b9050919050565b60008190508160005260206000209050919050565b60006020601f8301049050919050565b600082821b905092915050565b600060088302610db77fffffffffffffffffffffffffffffffffffffffffffffffffffffffffffffffff82610d7a565b610dc18683610d7a565b95508019841693508086168417925050509392505050565b6000819050919050565b6000610dfe610df9610df4846106ba565b610dd9565b6106ba565b9050919050565b6000819050919050565b610e1883610de3565b610e2c610e2482610e05565b848454610d87565b825550505050565b600090565b610e41610e34565b610e4c818484610e0f565b505050565b5b81811015610e7057610e65600082610e39565b600181019050610e52565b5050565b601f821115610eb557610e8681610d55565b610e8f84610d6a565b81016020851015610e9e578190505b610eb2610eaa85610d6a565b830182610e51565b50505b505050565b600082821c905092915050565b6000610ed860001984600802610eba565b1980831691505092915050565b6000610ef18383610ec7565b9150826002028217905092915050565b610f0a8261071a565b67ffffffffffffffff811115610f2357610f22610933565b5b610f2d8254610c12565b610f38828285610e74565b600060209050601f831160018114610f6b5760008415610f59578287015190505b610f638582610ee5565b865550610fcb565b601f198416610f7986610d55565b60005b82811015610fa157848901518255600182019150602085019450602081019050610f7c565b86831015610fbe5784890151610fba601f891682610ec7565b8355505b6001600288020188555050505b505050505050565b60006040820190508181036000830152610fed8185610b11565b9050610ffc60208301846106c4565b939250505056fea2646970667358221220117fbf43f03afdcb3f273653e89403117080ad51e1e5b74ce4c224dbb15441ef64736f6c63430008130033",
  "immutableReferences": {},
  "source": "// SPDX-License-Identifier: MIT\npragma solidity ^0.8.0;\n\ncontract Pastebin {\n    struct Paste {\n        string content;\n        address author;\n        uint timestamp;\n        uint id;\n    }\n\n    event NewPaste(\n        string content,\n        address indexed author,\n        uint256 timestamp,\n        uint256 indexed id\n    );\n\n    uint id = 0;\n    uint public pasteCount;\n    // Paste[] public pastes;\n    mapping(uint => Paste) public pastes;\n\n    function createPaste(string memory _content) public {\n        require(bytes(_content).length > 0, \"Content must not be empty.\");\n        pastes[id] = Paste(_content, msg.sender, block.timestamp, id);\n        emit NewPaste(_content, msg.sender, block.timestamp, id);\n        id++;\n        pasteCount++;\n    }\n\n    function getPaste(\n        uint256 _id\n    ) public view returns (string memory, address, uint256) {\n        Paste memory paste = pastes[_id];\n        return (paste.content, paste.author, paste.timestamp);\n    }\n\n    function getAllPastes() public view returns (Paste[] memory) {\n        Paste[] memory allPastes = new Paste[](pasteCount);\n        for (uint i = 0; i <= pasteCount; i++) {\n            allPastes[i] = pastes[i];\n        }\n        return (allPastes);\n    }\n\n    function findPasteIndexById(uint _id) internal view returns (int) {\n        for (uint i = 0; i < pasteCount; i++) {\n            if (pastes[i].id == _id) {\n                return int(i);\n            }\n        }\n\n        // If the paste is not found, return -1\n        return int(-1);\n    }\n\n    // function removePaste(uint _id) public{\n    //     int index = findPasteIndexById(_id);\n    //     require(index >= 0, \"Paste does not exist\");\n    //     delete pastes[_id];\n    //     pastes[_id] =\n\n    //     pasteCount--;\n    // }\n}\n",
  "sourcePath": "/home/maks/Documents/projects/pastebin/contracts/Pastebin.sol",
  "compiler": {
    "name": "solc",
    "version": "0.8.19+commit.7dd6d404.Emscripten.clang"
  },
  "schemaVersion": "3.4.13",
  "updatedAt": "2023-05-26T11:43:56.740Z",
  "networkType": "ethereum",
  "devdoc": {
    "kind": "dev",
    "methods": {},
    "version": 1
  },
  "userdoc": {
    "kind": "user",
    "methods": {},
    "version": 1
  }
}